:200000000C9473000C949B000C949B000C949B000C949B000C949B000C949B000C949B0030
:200020000C949B000C949B000C949B000C949B000C949B000C949B000C949B000C949B00E8
:200040000C94C7100C949B000C9495100C946F100C949B000C949B000C949B000C949B009E
:200060000C949B000C949B00005EBCE2613FDD83C29C7E20A3FD1F41009D23BE46DB65F816
:200080008C11AF32CA57E97400000000240027002A0000000000250028002B00000000086F
:2000A0000002010000030407000000000000000000000000230026002900040404040404A5
:2000C0000404020202020202030303030303010204081020408001020408102001020408AD
:2000E00010201111932511241FBECFEFD8E0DEBFCDBF27E0A8ECB5E001C01D92A13DB2070E
:20010000E1F715E0A0E0B1E0E4E1F6E502C005900D92A83CB107D9F710E0C2E7D0E004C0F2
:200120002197FE010E940529C137D107C9F70E94EF110C94FD2A0C940000AF92BF92CF92AC
:20014000DF92EF92FF920F931F93CF93DF936C017B018B01040F151FEB015E01AE18BF0860
:20016000C017D10759F06991D601ED91FC910190F081E02DC6010995892B79F7C501DF91DD
:20018000CF911F910F91FF90EF90DF90CF90BF90AF900895FC0144815581608171818BE0D2
:2001A00097E00C949D00FC01538D448D252F30E0842F90E0821B930B541710F0CF960895AE
:2001C00001970895FC01918D828D981761F0A28DAE0FBF2FB11D5D968C91928D9F5F9F73D9
:2001E000928F90E008958FEF9FEF0895FC01918D828D981731F0828DE80FF11D858D90E098
:2002000008958FEF9FEF0895FC01918D228D892F90E0805C9F4F821B91098F739927089546
:200220008BE196E00E94040121E0892B09F420E0822F089580E090E0892B29F00E941001E5
:2002400081110C9400000895FC01A48DA80FB92FB11DA35ABF4F2C91848D90E001968F7352
:200260009927848FA689B7892C93A089B1898C91837080648C93938D848D981306C00288DB
:20028000F389E02D80818F7D80830895EF92FF920F931F93CF93DF93EC0181E0888F9B8D61
:2002A0008C8D98131AC0E889F989808185FF15C09FB7F894EE89FF896083E889F98980819B
:2002C0008370806480839FBF81E090E0DF91CF911F910F91FF90EF900895F62E0B8D10E09E
:2002E0000F5F1F4F0F731127E02E8C8D8E110CC00FB607FCFACFE889F989808185FFF5CF09
:20030000CE010E942401F1CFEB8DEC0FFD2FF11DE35AFF4FF0829FB7F8940B8FEA89FB896A
:2003200080818062CFCFCF93DF93EC01888D8823B9F0AA89BB89E889F9898C9185FD03C046
:20034000808186FD0DC00FB607FCF7CF8C9185FFF2CF808185FFEDCFCE010E942401E9CFCD
:20036000DF91CF910895833081F028F4813099F08230A9F008958730A9F08830C9F0843039
:20038000B1F4809180008F7D03C0809180008F7780938000089584B58F7784BD089584B53B
:2003A0008F7DFBCF8091B0008F778093B00008958091B0008F7DF9CFCF93DF93E8EAF0E035
:2003C0008491EAEDF0E0D491E6ECF0E0C491CC23A1F081110E94B301EC2FF0E0EE0FFF1F97
:2003E000E055FF4FA591B491EC91ED2381E090E009F480E0DF91CF91089580E090E0FACF3E
:200400001F93CF93DF93282F30E0F901E456FF4F8491F901E253FF4FD491F901E654FF4FF4
:20042000C491CC23A9F0162F81110E94B301EC2FF0E0EE0FFF1FEE56FF4FA591B4918FB759
:20044000F894EC91111108C0D095DE23DC938FBFDF91CF911F910895DE2BF8CFCF93DF93C5
:2004600090E0FC01E253FF4F249186549F4FFC0184918823D1F090E0880F991FFC01E85796
:20048000FF4FA591B491FC01EE56FF4FC591D49161110EC09FB7F8948C91E22FE0958E23D3
:2004A0008C932881E223E8839FBFDF91CF9108958FB7F894EC91E22BEC938FBFF6CF1F9399
:2004C000CF93DF93182FEB0161E00E942E02209739F460E0812FDF91CF911F910C9400020C
:2004E000CF3FD10511F461E0F5CFE12FF0E0E456FF4FE491E33031F140F4E130B1F0E23004
:20050000E1F0C038D1057CF7E4CFE73029F1E83059F1E430B1F780918000806280938000C1
:20052000D0938B00C0938A0004C084B5806884BDC7BDDF91CF911F91089584B5806284BDCD
:20054000C8BDF7CF80918000806880938000D0938900C0938800EDCF8091B0008068809305
:20056000B000C093B300E5CF8091B00080628093B000C093B400DDCF8E50806480937C00A7
:2005800080917A00806480937A0080917A0086FDFCCF809178009091790008953FB7F89444
:2005A0008091DB059091DC05A091DD05B091DE0526B5A89B05C02F3F19F00196A11DB11D94
:2005C0003FBFBA2FA92F982F8827BC01CD01620F711D811D911D42E0660F771F881F991F84
:2005E0004A95D1F708958F929F92AF92BF92CF92DF92EF92FF926B017C010E94CE024B0148
:200600005C01C114D104E104F104B9F00E94CE02681979098A099B09683E7340810591052F
:2006200080F321E0C21AD108E108F10888EE880E83E0981EA11CB11CE4CFFF90EF90DF90D0
:20064000CF90BF90AF909F908F9008952FB7F8946091D7057091D8058091D9059091DA05B6
:200660002FBF0895DC0180E0615090F09D919827E92FEF70F0E0E859FF4F2491E92FE2957A
:20068000EF70F0E0E858FF4FE491822F8E27ECCF0895DC012C911196ED91FC91F894818190
:2006A000822B81839281322F30959323928387E090E00197F1F781818323818383E290E0AD
:2006C0000197F1F790817894EFECF0E03197F1F7922381E009F480E00895FC019081018083
:2006E000F281E02D292F209560FF14C0F8948281822382838181892B8183A3E2B0E011978A
:20070000F1F78281982B9283789487ED90E00197F1F70895F8948281822382838181892B1A
:200720008183AFEFB0E01197F1F78281982B928378948FE090E0EBCFDF92EF92FF920F9352
:200740001F93CF93DF93EC01D62EE42E08E010E0FF24F39461E08D2D8F2109F460E0CE01D7
:200760000E946D03FF0C01501109A1F7E11010C0F894E981FA819181888180958923818347
:20078000E981FA81928188818095892382837894DF91CF911F910F91FF90EF90DF9008954C
:2007A000EF92FF920F931F93CF93DF938C017B0140E065E50E949C03E70188E0E80EF11CF8
:2007C000699140E0C8010E949C03CE15DF05C1F7DF91CF911F910F91FF90EF900895FC01AE
:2007E00090810180F281E02DF8948181292F20958223818378943DE743E050E0315029F185
:20080000DA011197F1F780818923C1F3F8948281822382838181892B81837894ABE7B7E0E4
:200820001197F1F7F894818182238183A3E1B1E01197F1F78081982381E009F080E07894CA
:20084000E3E6F6E03197F1F7089580E008956F927F928F929F92AF92BF92CF92DF92EF9266
:20086000FF920F931F93CF93DF938C01EB018091EF069091F0060E94EF03882309F43FC0EE
:20088000B8018091EF069091F0060E94D00340E06EEB8091EF069091F0060E949C037E01B7
:2008A0006E0189E0C80ED11C8E01A090EF06B090F00688E0882E912C712C66246394C501F4
:2008C0000E94490381117628660CE1E08E1A9108B1F7F80171928F01CE16DF0631F7809150
:2008E000EF069091F0060E94EF03813041F4F70181917F01811105C0E017F107C1F790E07A
:2009000008C068E0CE010E94320391E028852813F6CF892FDF91CF911F910F91FF90EF901D
:20092000DF90CF90BF90AF909F908F907F906F900895089590E080E008954F925F926F9285
:200940007F928F929F92AF92BF92CF92DF92EF92FF92CF93DF9300D000D0CDB7DEB780E1D0
:200960000E94BC027C014090DA065090DB066090DC067090DD06E6EDF6E0208131814281B5
:200980005381C301B2010E9423279B01AC01C301B2010E948F2769837A838B839C838090E2
:2009A000E2069090E306A090E406B090E506B701FF0C880B990B0E94B825A50194010E94AB
:2009C000222729813A814B815C810E941726A50194010E9423276B017C01AC019B01C501C2
:2009E000B4010E9422279F772091DE063091DF064091E0065091E1060E9417264B015C01FF
:200A000029813A814B815C8160E070E080E89FE30E942227A30192010E9417269B01AC0104
:200A2000C501B4010E9423276093DA067093DB068093DC069093DD06C092E206D092E30618
:200A4000E092E406F092E506C701B6010E9401287093010660930006072E000C880B990B08
:200A60000E94B82520E030E040EA50E40E94172620E030E040E85AE30E9417266093EA0574
:200A80007093EB058093EC059093ED050F900F900F900F90DF91CF91FF90EF90DF90CF9022
:200AA000BF90AF909F908F907F906F905F904F900895BF92CF92DF92EF92FF920F931F9358
:200AC000CF93DF93EC01B62EC72E8D85811105C0CE010E94EF0381110EC01B861D861C866A
:200AE00080E0DF91CF911F910F91FF90EF90DF90CF90BF90089540E060EFCE010E949C032F
:200B000001E0E12CD12C11E0CE010E944903F82ECE010E94490391E0F91218C0813099F5C6
:200B20001134D8F2DB86D11002C081E08D878B81882399F22396EB2DFC2DCF0108962991C9
:200B40002193E817F907D9F781E0CBCFEE2DF0E0F8120FC08B851817A0F4DE01AE0FBF1F06
:200B600013968C91802379F4F12C193008F41C87D12EEC0FFD1F8381902F909589238383EA
:200B80000AC08113F1CFFE01EE0DF11D8381802B8383FF24F3946F2DCE010E946D031F5FD5
:200BA000000F11F4E39401E087E08E1508F0ACCFB7CFFF920F931F93CF93DF938C01F62E5C
:200BC000E091EF06F091F00613861586148612861186108617821682158214821382C0E012
:200BE000B8018091EF069091F0060E945905D82F882329F0FC1629F0CF5FFC1688F7D0E0BA
:200C000008C067E0C8010E943203F80197818913F3CF8D2FDF91CF911F910F91FF900895AE
:200C2000CF93DF93EC0160E08E810E94000261E08E810E94000260E08E810E9400028BE8A6
:200C400091E00197F1F7DF91CF910895CF92DF92EF92FF920F931F93CF93DF936C017C0140
:200C600087E0E80EF11CD0E0C0E0062F10E0B8010C2E02C0759567950A94E2F76170F7019A
:200C800081917F010E9400022196C430D10579F7C601DF91CF911F910F91FF90EF90DF90C9
:200CA000CF900C941006CF92DF92EF92FF920F931F93CF93DF93EC01F62E642F8C810E94C0
:200CC00000028D818F3F19F060E00E9400020F2D10E08F8584FF25C06E0187E0C80ED11C08
:200CE000F12CE12CB8010E2C02C0759567950A94E2F76170F60181916F010E940002FFEFBC
:200D0000EF1AFF0A88E0E816F10461F7CE01DF91CF911F910F91FF90EF90DF90CF900C94A3
:200D20001006B80184E0759567958A95E1F7CE010E9426066F2DCE01DF91CF911F910F915B
:200D4000FF90EF90DF90CF900C94260640E0682F8BE097E00C94530681E00E94A6068BE33C
:200D60009FE10197F1F70895CF93DF93823029F490911A07986090931A0780931E071092DB
:200D80001F0780E48093200780E18093210780E58093220761E080910F070E942E02809107
:200DA00010078F3F19F061E00E942E0261E0809111070E942E02CBE0D7E09E012B50374003
:200DC00080911A0784FD0BC084E090E021962817390744F461E08E810E942E02EECF88E00C
:200DE00090E0F4CF8BE39DE00197F1F760E080910F070E94000260E0809111070E9400023D
:200E0000809110078F3F19F060E00E94000280911A0784FD34C063E08BE097E00E94260655
:200E2000CBE4D6E4CE010197F1F763E08BE097E00E9426062197F1F763E08BE097E00E94A0
:200E4000260683E592E00197F1F762E08BE097E00E94260680911A0780620E94A60684E054
:200E600080931B078CE00E94A6060E94AC0682E080931C0786E0DF91CF910C94A606806233
:200E80000E94A6068BE496E40197F1F780911A0780620E94A60683E592E00197F1F78091CE
:200EA0001A0780620E94A606D5CF90911E07691710F06FEF690FE62FF0E0E55FF84F948914
:200EC000890F80680C94A60641E00E94530681E090E008950F931F93CF93DF938B0128E000
:200EE000829FC001112480640E94A606E801085F1F4F69918BE097E00E946407C017D10753
:200F0000C1F7DF91CF911F910F91089541E0682F8BE097E00E94530681E090E00895FC015C
:200F200001900020E9F73197AF01481B590BBC018BE097E00C949D008F929F92AF92BF9221
:200F40000F931F93CF93DF93CDB7DEB7A1970FB6F894DEBF0FBECDBF19A2423008F44AE07E
:200F60008E010F5D1F4F842E912CB12CA12CA50194010E94B028E62FB901CA01EA30F4F49E
:200F8000E05DD801EE938D01232B242B252B79F790E080E0109719F0CD010E948F07A19612
:200FA0000FB6F894DEBF0FBECDBFDF91CF911F910F91BF90AF909F908F900895E95CE1CF5C
:200FC000CF92DF92EF92FF92CF93DF9397FF19C06B017C018DE20E948607EC01662777274B
:200FE000CB016C197D098E099F094AE00E949C078C0F9D1FDF91CF91FF90EF90DF90CF9069
:2010000008954AE0DF91CF91FF90EF90DF90CF900C949C070C948F074F925F926F927F9200
:201020008F929F92AF92BF92CF92DF92EF92FF92CF93DF936B017C01D42FAC019B010E943D
:201040008228882391F08DEA91E0DF91CF91FF90EF90DF90CF90BF90AF909F908F907F903B
:201060006F905F904F900C948F0726013701E89477F82FEF3FEF4FE75FE7C301B2010E9442
:20108000822881110DC02FEF3FEF4FE75FE7C301B2010E94B12518161CF481EB91E0D5CFD1
:2010A0002FEF3FEF4FE75FE4C701B6010E94372818161CF485EB91E0C8CF2FEF3FEF4FE7B3
:2010C0005FECC701B6010E94B12587FDF3CF20E030E0A901C701B6010E94B125912C812C6D
:2010E00087FF08C08DE20E9486074C01F7FAF094F7F8F094CD2FA12C60E070E080E09FE394
:20110000AD1640F420E030E040E251E40E948F27A394F6CFA70196010E9423272B013C0189
:201120000E9408285B016C014AE00E949C077C01E80CF91CDD23B1F1C601B5010E94B62583
:201140009B01AC01C301B2010E9422274B015C018EE20E948607E80EF91EC15018F120E075
:2011600030E040E251E4C501B4010E9417262B013C010E9408284B01B12CA12C4AE0C5018D
:20118000B4010E949C07E80EF91EC501B4010E94B6259B01AC01C301B2010E9422274B0159
:2011A0005C01DBCFC701DF91CF91FF90EF90DF90CF90BF90AF909F908F907F906F905F90DB
:2011C0004F9008950F931F93CF93DF93EC0188819981009759F02A813B812617370730F079
:2011E00081E0DF91CF911F910F9108958B016F5F7F4F0E94302A009759F0998388831B8308
:201200000A832C813D81232B59F7FC011082E8CF80E0E7CFEF92FF920F931F93CF93DF93A2
:20122000EC017B01198218821B821A821D821C82FB0101900020E9F731978F01061B170B72
:20124000B8010E94E20828813981811113C02115310519F0C9010E94A729198218821D82FC
:201260001C821B821A82DF91CF911F910F91FF90EF9008951D830C83B701C901DF91CF914B
:201280001F910F91FF90EF900C94F62AEF92FF920F931F93CF93DF93EC017B01FB01019000
:2012A0000020E9F731978F01061B170BB8010E94E20828813981811113C02115310519F011
:2012C000C9010E94A729198218821D821C821B821A82DF91CF911F910F91FF90EF9008955C
:2012E0001D830C83B701C901DF91CF911F910F91FF90EF900C94F62AEF92FF920F931F93E9
:20130000CF93DF93FB0101900020E9F73197E61BF70BE1F07B018C01DC011496CD91DC9175
:20132000CE0FDF1FBE010E94E208882381F0F8012081318184819581B701820F931F0E9467
:20134000F62AD8011596DC93CE93149781E0DF91CF911F910F91FF90EF9008950F931F93EE
:20136000CF93DF938C01EB010E94D5268883C80101960E94D5268983CE01DF91CF911F9120
:201380000F910895CF92DF92EF92FF920F931F93CF93DF93EB017B0124E0E20EF11C8B010F
:2013A0006C01C61AD70AC601800F911F0E94D526F80181938F01EE15FF05A9F7CE01DF91D9
:2013C000CF911F910F91FF90EF90DF90CF900895CF92DF92EF92FF920F931F93CF93DF93D8
:2013E000EB017B0124E0E20EF11C8B016C01C61AD70AC601800F911F0E94D526F80181931A
:201400008F01EE15FF05A9F7CE01DF91CF911F910F91FF90EF90DF90CF90089580911906FD
:201420008130B9F560E471E084E190E00E94C209FC0180819181A281B38180934001909398
:201440004101A0934201B093430160E080E00E94550789EB91E00E940A0861E080E00E94D3
:20146000550789E694E00E940A08609140017091410180914201909143010E94E0078AEC4C
:2014800091E00E940A0880E20E94860780E20E948607809119068230A1F56CE371E08EE17E
:2014A00090E00E94C209FC0180819181A281B38180933C0190933D01A0933E01B0933F0142
:2014C00060E080E00E94550781ED91E00E940A0861E080E00E94550787E794E00E940A08A6
:2014E00060913C0170913D0180913E0190913F010E94E00782EE91E00E940A0880E20E94AC
:201500008607809119068330B1F568E371E082E390E00E94E809FC0180819181A281B3814A
:201520008093380190933901A0933A01B0933B0160E080E00E94550789EE91E00E940A08DB
:2015400061E080E00E94550787E794E00E940A08609138017091390180913A0190913B0148
:2015600041E050E00E940C0889E694E00E940A0880E20E948607809119068430D9F460E04B
:2015800080E00E9455078AEF91E00E940A0861E080E00E9455078BE092E00E940A0888EBAC
:2015A00096E00E94CA008FE092E00E940A0880E20E94860780911906853019F560E080E090
:2015C0000E94550783E192E00E940A0861E080E00E94550787E794E00E940A0860917401E8
:2015E00070917501809176019091770141E050E00E940C0884E292E00E940A0880E20E94BC
:201600008607809119068630D9F460E080E00E9455078BE292E00E940A0861E080E00E9416
:2016200055078CE392E00E940A088EEB96E00E94CA0084E492E00E940A0880E20E9486073F
:2016400080911906873019F560E080E00E9455078CE492E00E940A0861E080E00E945507C2
:201660008CE392E00E940A0860916F0170917001809171019091720142E050E00E940C08E3
:2016800084E492E00E940A0880E20E948607809119068830D9F460E080E00E9455078DE566
:2016A00092E00E940A0861E080E00E9455078CE392E00E940A0884EC96E00E94CA0084E416
:2016C00092E00E940A0880E20C9486070895CF93DF93EB010E94D5268883CE01DF91CF91B1
:2016E00008954F925F926F927F928F929F92AF92BF92CF92DF92EF92FF92CF93DF93CDB749
:20170000DEB7A1970FB6F894DEBF0FBECDBF60E471E084E190E00E94C209DC016D917D91F5
:201720008D919C910E94B8256A8F7B8F8C8F9D8F84E10E94BC027C0185E10E94BC02BC01D0
:20174000990F880B990B0E94B8256E8B7F8B888F998F609307067093080680930906909393
:201760000A06B701FF0C880B990B0E94B82520E030E040EA50E40E94172620E030EC4FE741
:2017800054E40E948F272B013C0120E030E040EA50E46E897F89888D998D0E94172620E0C9
:2017A00030EC4FE754E40E948F274B015C0120E030E0A9010E943728181624F0B7FAB094AC
:2017C000B7F8B09420E030E0A901C301B2010E943728181624F077FA709477F87094A50114
:2017E0009401C301B2010E948F276B017C0120E030E040E85FE30E9423276A8B7B8B8C8B24
:201800009D8BA701960160E070E080E89FE30E9422279B01AC016A897B898C899D890E94DF
:201820008F276B017C01A5019401C301B2010E943728181614F424013501A3019201C501C8
:20184000B4010E94B125811127C020E030E0A901C301B2010E94B1258823F1F020E030E09D
:20186000A901C501B4010E94B1258823A9F060E080E00E9455078EE692E00E940A0880E2ED
:201880000E94860780E20E948607C12C80ECD82E89E7E82E84E4F82E20E030E0A9016E8964
:2018A0007F89888D998D0E94B12581110DC060E00E94550786E792E00E940A0880E20E9439
:2018C000860780E20E948607A3019201C501B4010E94B12587FDB3C220E030EC49E754E443
:2018E000C701B6010E94372887FFA9C220E030E0A901C701B6010E94372818160CF4A9C2A4
:20190000D701C601B0588A8B9B8BAC8BBD8B8A899B89AC89BD898093CC059093CD05A093A8
:20192000CE05B093CF0520E030E040E251E4BC01CD010E9417260E9401286093C80570935E
:20194000C9058093CA059093CB0560913C0170913D0180913E0190913F010E94B8256E8F4A
:201960007F8F88A399A39B01AC016A8D7B8D8C8D9D8D0E9417260E9442286A8F7B8F8C8F5E
:201980009D8F8091E6058111FFC080911A068111FBC08091D405883008F4F6C01092D40581
:2019A00020E030EC49E754E4C701B6010E94B125882309F4E9C0A3019201C501B4010E9407
:2019C000372818160CF0E0C020E030E0A9016E897F89888D998D0E94B125882309F4D4C036
:2019E00020E030E040EA50E46A8D7B8D8C8D9D8D0E948F27A50194010E9417269B01AC017C
:201A00000E9417262E8D3F8D48A159A10E948F274B015C0120E030E040E050E46A897B8921
:201A20008C899D890E9423276B017C012A893B894C895D8960E070E080E89FE30E948F2792
:201A40009B01AC01C701B6010E9423279B01AC0160E070E080E890E40E948F27A50194018A
:201A60000E9417266B017C018091E30581114AC060E00E94550787E892E00E940A08609145
:201A8000CC057091CD058091CE059091CF0541E050E00E940C088EE594E00E940A0860E0E7
:201AA00088E00E9455078CE892E00E940A0860E08BE00E94550720E030E040E251E4C7014E
:201AC000B6010E94B12587FF06C041E050E0C701B6010E940C0820E030E040E251E4C701D6
:201AE000B6010E94372887FD06C050E040E0C701B6010E940C0880E992E00E940A0880E26E
:201B00000E9486078091E3058823F1F18091E60581113AC060E00E9455078BE594E00E94C4
:201B20000A0860E085E00E94550784E992E00E940A0860E089E00E94550720E030E040E284
:201B400051E4C701B6010E94B12587FF06C041E050E0C501B4010E940C0820E030E040E259
:201B600051E4C701B6010E94372887FD06C050E040E0C501B4010E940C0880E992E00E9468
:201B80000A0880E20E9486078091E005811163C069E972E08EEB96E00E944609C090CC0552
:201BA000D090CD05E090CE05F090CF0520E030E040E85FE3C701B6010E94B125882371F0DF
:201BC000209138013091390140913A0150913B01C701B6010E94B12587FF04C060E08BE00B
:201BE0000E940002209138013091390140913A0150913B01C701B6010E94372887FD2BC044
:201C00008091C8059091C905A091CA05B091CB058F3F9105A105B10564F08FEF90E0A0E064
:201C2000B0E08093C8059093C905A093CA05B093CB056091C8057091C9058091CA059091A0
:201C4000CB0522E030E040E050E00E94D228B9018BE00E945F028091E0058130E1F56DE9BB
:201C600072E08EEB96E00E944609C090CC05D090CD05E090CE05F090CF0520E030E040E810
:201C80005FE3C701B6010E94B125882371F0209138013091390140913A0150913B01C70129
:201CA000B6010E94B12587FF04C060E08BE00E940002209138013091390140913A0150918A
:201CC0003B01C701B6010E94372887FD04C061E08BE00E9400028091D5058F5F8093D505EA
:201CE000843108F48DC08091ED06809306068091EF069091F0060E94EF0340E06CEC809189
:201D0000EF069091F0060E949C034091E60664E48091EF069091F0060E949C038091EA0612
:201D2000882311F1E091E9068091EB06882309F495C08091E606811191C00E9426036B0180
:201D40007C018091EF069091F0060E944903813059F00E9426036C197D098E099F096E3E40
:201D600072408105910568F360E0CE010A960E94D90581119BC0C12CD12CFEEFEF2EF2EC4C
:201D8000FF2EC0920B06D0920C06E0920D06F0920E0620E030E04EEF52ECC701B6010E9478
:201DA000B125882309F4DAC020E030E040E650E4C701B6010E9417266B017C0120E030E04A
:201DC0004FE753E40E94372887FFBBC0C092D005D092D105E092D205F092D3056091D005CC
:201DE0007091D1058091D2059091D3050E9401288AE00E945F0281E0809306061092D505F7
:201E00008091D4058F5F8093D405809110068F5F80931006A1960FB6F894DEBF0FBECDBF42
:201E2000DF91CF91FF90EF90DF90CF90BF90AF909F908F907F906F905F904F900895C12CB4
:201E4000B0ECDB2EB9E7EB2EB4E4FB2ED701C6015ACDCA8ADB8AEC8AFD8A59CDE9508EEE0C
:201E600092E0E33038F4F0E0EE0FFF1FEA57FE4F808191816C01990FEE08FF088091E70615
:201E8000882329F060E08091E8060E940002C701B6010E94F3028091E706882309F464CFAC
:201EA00061E08091E8060E9400025ECFBE016F5F7F4FCE010A960E942704882309F45BCFA8
:201EC0006A8170E0762F6627770F770F770F2981B8E02B9F90011124262B372B8A858031BE
:201EE000E1F468856623C9F070E08F81FB01E81BF109CF019695982F8827979587950E942A
:201F00009C28CB018097B90153E0660F771F5A95E1F760789C01260F371F2138F4EE3F07DA
:201F20000CF429CFB901330F880B990B0E94B82520E030E040E05CE30E9417266B017C01C0
:201F400020CF80E090E0AFE7B3E48093D0059093D105A093D205B093D30540CF10920606D2
:201F60004DCFFF920F931F93CF93DF93EC01F62E08811981C8010E94D526F81621F06F2D37
:201F8000C8010E94DD26CE01DF91CF911F910F91FF9008950F931F93CF93DF9300D0CDB73C
:201FA000DEB78B019A838983FB016081CE0101960E94B10FC8010F900F90DF91CF911F91AB
:201FC0000F910895AF92BF92CF92DF92EF92FF920F931F93CF93DF9300D0CDB7DEB78B01B1
:201FE0006B0124E0C20ED11C7B015C01A61AB70AC5018E0D9F1D9A838983F70161917F01AA
:20200000CE0101960E94B10FEC14FD0489F7C8010F900F90DF91CF911F910F91FF90EF9042
:20202000DF90CF90BF90AF900895AF92BF92CF92DF92EF92FF920F931F93CF93DF9300D039
:20204000CDB7DEB78B016B0124E0C20ED11C7B015C01A61AB70AC5018E0D9F1D9A8389830E
:20206000F70161917F01CE0101960E94B10FEC14FD0489F7C8010F900F90DF91CF911F9126
:202080000F91FF90EF90DF90CF90BF90AF900895EF92FF920F931F93CF93DF9300D0CDB70B
:2020A000DEB78C017B019A838983FB016081CE0101960E94B10F0F5F1F4F1A830983F701B7
:2020C0006181CE0101960E94B10FC7010F900F90DF91CF911F910F91FF90EF9008951F92D4
:2020E0000F920FB60F9211242F933F934F935F936F937F938F939F93AF93BF93EF93FF932C
:202100008BE196E00E942401FF91EF91BF91AF919F918F917F916F915F914F913F912F91B6
:202120000F900FBE0F901F9018951F920F920FB60F9211242F938F939F93EF93FF93E091B0
:202140002B06F0912C068081E0913106F091320682FD1BC09081809134068F5F8F732091E2
:202160003506821741F0E0913406F0E0E55EF94F958F80933406FF91EF919F918F912F91C3
:202180000F900FBE0F901F9018958081F4CF1F920F920FB60F9211242F933F938F939F933F
:2021A000AF93BF938091D7059091D805A091D905B091DA053091D60523E0230F2D3758F5EF
:2021C0000196A11DB11D2093D6058093D7059093D805A093D905B093DA058091DB0590911A
:2021E000DC05A091DD05B091DE050196A11DB11D8093DB059093DC05A093DD05B093DE0572
:20220000BF91AF919F918F913F912F910F900FBE0F901F90189526E8230F0296A11DB11D83
:20222000D2CFCF93EBE1F6E01382128288EE93E0A0E0B0E084839583A683B78383E991E078
:202240009183808385EC90E09587848784EC90E09787868780EC90E0918B808B81EC90E074
:20226000938B828B82EC90E0958B848B86EC90E0978B868B118E128E138E148EE3E2F7E0F3
:202280001082118A12A213AA10926707109278071092890710929A071092AB071092BC0741
:2022A000EBE0F7E01382128285EA91E091838083C9E0C4838FEF858388E0868387E0878304
:2022C00086E0808785E0818784E082871386148615861686178681E00E94B40660E081E151
:2022E0000E942E02EFEDF0E0E491ADEFB6E0EC93EBECF0E0E491F0E0EE0FFF1FE055FF4FB0
:202300008591949112969C938E9311971B961C921B971D961C921D971C961C921C971A96F9
:202320001C921A9719961C92199718961C92189717961C92179716961C92169715961C92BD
:20234000159714961C92149713961C921397E6EEF6E0168A158A1182B287A18717821086C1
:202360001082C38381E0848385838683E6EDF6E0148615861686178680E090E0A4EBB2E400
:2023800080839183A283B38384839583A683B78380E090E0A0E8BFE380879187A287B387CD
:2023A00060E674E080ED96E00E940A0960E674E08AEC96E00E940A0961EA72E084EC96E02D
:2023C0000E940A0969E972E08EEB96E00E940A0964EA72E088EB96E0CF910C940A09CF9302
:2023E000DF93CDB7DEB761970FB6F894DEBF0FBECDBF789484B5826084BD84B5816084BD50
:2024000085B5826085BD85B5816085BD80916E00816080936E001092810080918100826089
:202420008093810080918100816080938100809180008160809380008091B1008460809343
:20244000B1008091B00081608093B00080917A00846080937A0080917A00826080937A0070
:2024600080917A00816080937A0080917A00806880937A001092C100E3E2F7E090E080E094
:202480002081222311F40C944625019671968A309105B1F7E091EF06F091F006138615869F
:2024A0001486128611861086178216821582148213821092ED061092EE0611E0BE01665F2A
:2024C0007F4F8091EF069091F0060E945905882309F475C067E0CE010A960E943203998985
:2024E0008913ECCF8091ED068F5F8093ED068A85883231F008F049C0803111F08232F1F655
:202500008091EE068F5F8093EE068091E606811128C08091EF069091F0060E94EF03BE01DA
:20252000665F7F4F8091EF069091F0060E94D00340E064EB8091EF069091F0060E949C03A9
:202540008091EF069091F0060E944903082F8091EF069091F0060E94EF03011102C0109311
:20256000E6068A858031E1F0BE016F5F7F4FCE010A960E942704882331F08D818F3391F02A
:2025800058F48F31C1F080E00EC08B3309F4B8CF823409F093CFB4CF8F3579F08F3799F7F7
:2025A0008CE001C08AE09091E906981708F086CF8093E90683CF89E0F6CF8BE0F4CF8AE05E
:2025C0008093E90600E08091ED06081708F0A7C0602FCE010A960E94D9058A85803109F45C
:2025E0007EC01091E9061D3008F47BC01CE0BE016F5F7F4FCE010A960E942704882309F44E
:202600006EC01A508FE1133028F4E12FF0E0E457FE4F80819D81981709F461C08D838091DE
:20262000EF069091F0060E94EF03BE01665F7F4F8091EF069091F0060E94D00340E06EE4A4
:202640008091EF069091F0060E949C0340E06B818091EF069091F0060E949C0340E06C81A5
:202660008091EF069091F0060E949C038A85803141F040E06D818091EF069091F0060E943E
:202680009C038091EF069091F0062091EC06222321F10E94EF03882311F1BE01665F7F4FF1
:2026A0008091EF069091F0060E94D0034091E60668E48091EF069091F0060E949C03809110
:2026C000E606811113C064E170E080E090E00E94F3028091EF069091F0060E94EF030F5F8E
:2026E00072CF193008F083CF19E081CF8091E706882329F060E08091E8060E94000264E1D3
:2027000070E080E090E00E94F3028091E706882301F361E08091E8060E940002DACFE09167
:202720002B06F0912C0682E08083E0912706F09128061082E0912906F0912A068FEC8083A2
:2027400010923306E0912F06F091300686E08083E0912D06F0912E06808180618083E09129
:202760002D06F0912E06808188608083E0912D06F0912E06808180688083E0912D06F0911B
:202780002E0680818F7D808382E00E94B40660E08EE00E942E0260E08FE00E942E0260E0F6
:2027A00080E10E942E0260E081E10E942E0261E082E10E942E0261E08AE00E942E0261E03E
:2027C0008BE00E942E0260E08CE00E942E0261E08CE00E94000260E371E081E00E946A07E5
:2027E00068E271E082E00E946A0760E271E083E00E946A0768E171E084E00E946A0760E16E
:2028000071E085E00E946A0768E071E086E00E946A0760E071E087E00E946A076FED75E021
:2028200090E080E00E94670BDC018C91853609F426C185E690E09A838983BE016F5F7F4FBC
:2028400090E080E00E9448106FE671E08AE090E00E94151060E471E084E190E00E94E20F6A
:202860006CE371E08EE190E00E94E20F64E771E088E290E00E94151068E371E082E390E098
:202880000E94151060EE75E08CE390E00E94CA0F6FE076E086E490E00E94670BFC018081E3
:2028A00080930F06811112C080E090E0A0EAB0E48093740190937501A0937601B093770118
:2028C00064E771E088E290E00E94151080910F06813091F480E090E0A0EAB1E480937401E8
:2028E00090937501A0937601B093770164E771E088E290E00E94151080910F06823091F440
:2029000080E090E0A0EFB1E48093740190937501A0937601B093770164E771E088E290E0C7
:202920000E94151080910F06833091F480E090E0A0EFB1E48093740190937501A0937601B3
:20294000B093770164E771E088E290E00E94151080910F06843071F4109274011092750111
:20296000109276011092770164E771E088E290E00E94151064EF75E084E690E00E9448106B
:2029800065E471E087E690E00E94481067E471E08AE690E00E94481069E471E08DE690E0CF
:2029A0000E9448106BE471E080E790E00E9448106DE471E083E790E00E9448106FE471E092
:2029C00086E790E00E94481061E571E089E790E00E94481063E571E08CE790E00E94481039
:2029E00065E571E08FE790E00E94481067E571E082E890E00E94481069E571E085E890E06F
:202A00000E9448106BE571E088E890E00E9448106DE571E08BE890E00E9448106FE571E01C
:202A20008EE890E00E94481061E671E081E990E00E94481063E671E084E990E00E944810D9
:202A400065E671E087E990E00E94481067E671E08AE990E00E94481069E671E08DE990E0FF
:202A60000E9448106BE671E080EA90E00E9448106DE671E083EA90E00E94481006C08EE037
:202A80000E94BC02C9970CF4D4CE6FE671E08AE090E00E94E809FC0180819181A281B3815A
:202AA00080936F0190937001A0937101B093720160E471E084E190E00E94C209FC018081CF
:202AC0009181A281B3818093400190934101A0934201B09343016CE371E08EE190E00E94B6
:202AE000C209FC0180819181A281B38180933C0190933D01A0933E01B0933F0168E371E062
:202B000082E390E00E94E809FC0180819181A281B3818093380190933901A0933A01B0938C
:202B20003B0160EE75E08CE390E00E94670BDC018C918093E0056FE076E086E490E00E94B0
:202B4000670BFC01808180930F068091E005811106C069E972E08EEB96E00E9446098091FA
:202B6000E005813031F46DE972E08EEB96E00E94460980910F06811124C064EA72E088EB63
:202B800096E00E94460980E092E09093E2058093E10580ED94E4A8EDBCE380937C0190932D
:202BA0007D01A0937E01B0937F0186EF98E2A8E5B1E48093780190937901A0937A01B093F7
:202BC0007B0180910F06813021F56FEA72E088EB96E00E94460980E092E09093E205809318
:202BE000E10588E691E9ADE6BCE380937C0190937D01A0937E01B0937F0186E696E6AEEEAB
:202C0000B0E48093780190937901A0937A01B0937B0180910F06823021F56AEB72E088EB82
:202C200096E00E94460980E092E09093E2058093E10580E090E0A0EFBBE380937C019093A8
:202C40007D01A0937E01B0937F0180E090E0A0E7B0E48093780190937901A0937A01B0937C
:202C60007B0180910F068330F1F465EC72E088EB96E00E9446091092E2051092E1058EE816
:202C800096E0A0E7BDE380937C0190937D01A0937E01B0937F011092780110927901109218
:202CA0007A0110927B0180910F068430F1F460ED72E088EB96E00E9446091092E205109218
:202CC000E1058EE896E0A0E7BDE380937C0190937D01A0937E01B0937F0110927801109298
:202CE000790110927A0110927B0164E771E088E290E00E94E809FC0180819181A281B381AF
:202D00008093740190937501A0937601B0937701AAE0EA2EF12C10E000E08FE00E94BC02CF
:202D2000080F191F6AE070E080E090E00E94F302F1E0EF1AF10889F7C8016AE070E00E94EB
:202D40009C288091E1059091E205861B970B90931206809311060E94AC0660E080E00E9472
:202D600055078BED92E00E940A0861E080E00E9455078CEE92E00E940A0888EB96E00E948F
:202D8000CA0060ED77E080E090E00E94F30261E080E00E94550768E572E080E090E00E94AE
:202DA000F30200E110E088E10E94A60662E370E080E090E00E94F30201501109A1F70E94F5
:202DC000AC06EEE88E2EE6E09E2EE0E7AE2EEDE3BE2EC12CD12CF0EFEF2EF1E4FF2E73E083
:202DE000272E312C8EE00E94BC028EE00E94BC028C019093E9058093E8056AE070E080E0ED
:202E000090E00E94F3028EE00E94BC028EE00E94BC02092E000CAA0BBB0BA801012E000C6D
:202E2000660B770B2C013D0123E0421A510861087108441555056605770564F00396A11D55
:202E4000B11D84179507A607B70724F01093EF050093EE058091EE059091EF05853FA1E073
:202E60009A0714F40C94241F1092E7051092E6051092E5051092E40580911A0681110C9431
:202E8000FF2180911906893008F434C280911806813009F02FC20E9426030091F00510917B
:202EA000F1052091F2053091F305601B710B820B930B653F71408105910508F41BC20E94AD
:202EC0009D0461E080E00E94550784E193E00E940A088091EE059091EF05CA9784F0609147
:202EE000EA057091EB058091EC059091ED0542E050E00E940C088AEE92E00E940A08809126
:202F0000EE059091EF05C99724F480E293E00E940A08809144018130F1F40E949D0460E039
:202F200080E00E94550786E293E00E940A0880910006909101069093F5058093F40580912B
:202F4000EE059091EF05C99734F464EF75E084E690E00E94481080914401823009F03FC065
:202F60000E949D0460E080E00E94550788E393E00E940A08809100069091010690934A0131
:202F8000809349012091F4053091F505821B930BB1010E949C28260F371F309346012093D4
:202FA0004501260F371F30934801209347018091EE059091EF05C99794F465E471E087E631
:202FC00090E00E94481067E471E08AE690E00E94481069E471E08DE690E00E944810809185
:202FE0004401833009F03FC00E949D0460E080E00E94550789E493E00E940A088091000655
:20300000909101069093500180934F012091490130914A01821B930BB1010E949C28260F22
:20302000371F30934C0120934B01260F371F30934E0120934D018091EE059091EF05C99714
:2030400094F46BE471E080E790E00E9448106DE471E083E790E00E9448106FE471E086E7F0
:2030600090E00E94481080914401843009F03FC00E949D0460E080E00E9455078AE593E021
:203080000E940A088091000690910106909356018093550120914F0130915001821B930B0C
:2030A000B1010E949C28260F371F3093520120935101260F371F3093540120935301809197
:2030C000EE059091EF05C99794F461E571E089E790E00E94481063E571E08CE790E00E9471
:2030E000481065E571E08FE790E00E94481080914401853009F04EC00E949D0460E080E008
:203100000E9455078BE693E00E940A08809100069091010690935E0180935D0120915501E0
:2031200030915601821B930B97FD03969595879595958795280F391F3093580120935701CD
:20314000280F391F30935A0120935901820F931F90935C0180935B018091EE059091EF056A
:20316000C997C4F467E571E082E890E00E94481069E571E085E890E00E9448106BE571E0AF
:2031800088E890E00E9448106DE571E08BE890E00E94481080914401863009F04EC00E9420
:2031A0009D0460E080E00E9455078CE793E00E940A0880910006909101069093660180935A
:2031C000650120915D0130915E01821B930B97FD03969595879595958795280F391F309314
:2031E000600120935F01280F391F3093620120936101820F931F909364018093630180913E
:20320000EE059091EF05C997C4F46FE571E08EE890E00E94481061E671E081E990E00E94F5
:20322000481063E671E084E990E00E94481065E671E087E990E00E94481080914401873042
:2032400009F04EC00E949D0460E080E00E9455078DE893E00E940A088091000690910106AB
:2032600090936E0180936D012091650130916601821B930B97FD0396959587959595879508
:20328000280F391F3093680120936701280F391F30936A0120936901820F931F90936C01AB
:2032A00080936B018091EE059091EF05C997C4F467E671E08AE990E00E94481069E671E043
:2032C0008DE990E00E9448106BE671E080EA90E00E9448106DE671E083EA90E00E9448101D
:2032E0000E9426036093F0057093F1058093F2059093F3050E94DC01019709F05FC28091BB
:203300001A0681115BC280911706882391F01092170661E080E00E94550783EF92E00E94A0
:203320000A0860E080E00E94550783EF92E00E940A080E949D0460E674E08AEC96E00E94DA
:2033400046090E949D040E9426030E94260340900206509003066090040670900506641902
:20336000750986099709643671058105910540F480910006909101069093FF058093FE05C4
:203380000E9426036419750986099709643671058105910598F00E9426036419750986092F
:2033A0009709683C71058105910540F480910006909101069093FD058093FC050E942603C0
:2033C0006419750986099709683C71058105910598F00E94260364197509860997096C3272
:2033E00071408105910540F480910006909101069093FB058093FA050E9426036419750992
:20340000860997096C3271408105910598F00E9426036419750986099709603971408105C5
:20342000910540F480910006909101069093F9058093F8050E94260364197509860997095D
:20344000603971408105910598F00E9426036419750986099709653F71408105910540F4E4
:2034600080910006909101069093F7058093F6050E9426036419750986099709653F714096
:203480008105910508F49AC18091FE059091FF052091FC053091FD05820F931F2091FA0518
:2034A0003091FB05820F931F2091F8053091F905820F931F2091F6053091F705820F931FAC
:2034C00065E070E00E949C288B0170930106609300066DE671E083EA90E00E94AE09DC01AB
:2034E0008D919C916EE973E0081719070CF038C16BE671E080EA90E00E94AE09FC018081D0
:2035000091816DEA73E0801791070CF429C169E671E08DE990E00E94AE09DC018D919C91CF
:203520006CEB73E0801791070CF41AC167E671E08AE990E00E94AE09FC01808191816BEC96
:2035400073E0801791070CF40BC165E671E087E990E00E94AE09DC018D919C916AED73E076
:20356000801791070CF4FCC063E671E084E990E00E94AE09FC018081918169EE73E080173F
:2035800091070CF4EDC061E671E081E990E00E94AE09DC018D919C9168EF73E0801791071A
:2035A0000CF4DEC06FE571E08EE890E00E94AE09FC018081918167E074E0801791070CF4AF
:2035C000CFC06DE571E08BE890E00E94AE09DC018D919C9166E174E0801791070CF4C0C00B
:2035E0006BE571E088E890E00E94AE09FC018081918165E274E0801791070CF4B1C069E558
:2036000071E085E890E00E94AE09DC018D919C9164E374E0801791070CF4A2C067E571E032
:2036200082E890E00E94AE09FC018081918163E474E0801791070CF493C065E571E08FE719
:2036400090E00E94AE09DC018D919C9162E574E0801791070CF484C063E571E08CE790E0EF
:203660000E94AE09FC018081918161E674E0801791070CF475C061E571E089E790E00E94C9
:20368000AE09DC018D919C9160E774E0801791070CF466C06FE471E086E790E00E94AE0981
:2036A000FC01808191816FE774E0801791070CF457C06DE471E083E790E00E94AE09DC0158
:2036C0008D919C916EE874E0801791070CF448C06BE471E080E790E00E94AE09FC018081F0
:2036E00091816DE974E080179107D4F169E471E08DE690E00E94AE09DC018D919C916CEAC2
:2037000074E08017910764F167E471E08AE690E00E94AE09FC018081918163E875E08017B5
:203720009107F4F065E471E087E690E00E94AE09DC018D919C9164E975E08017910784F0D0
:2037400064EF75E084E690E00E94AE09FC018081918165EF72E08017910714F467EF72E0F9
:203760008AEC96E00E947C0961E084E00E9455078BEB94E00E940A0861E086E00E94550750
:203780008DEB94E00E940A0861E08BE00E94550782EC94E00E940A0860E081E00E945507AA
:2037A0008AEC96E00E94CA000E942603609302067093030680930406909305060E94DC0115
:2037C000892B09F031C380911A0681112DC380911706811113C081E08093170661E080E0D0
:2037E0000E94550783EF92E00E940A0860E080E00E94550783EF92E00E940A0880911A06CC
:203800008111CBC260E674E080ED96E00E94460980910F06843008F40EC1409007065090B9
:2038200008066090090670900A0620E030E84CE754E4C301B2010E94372864EC74E018169E
:203840000CF4EBC020E030E040E754E4C301B2010E94372866ED74E018160CF4DEC020E063
:2038600030E040E654E4C301B2010E94372867ED74E018160CF4D1C020E030E040E554E48E
:20388000C301B2010E94372868EE74E018160CF4C4C020E030E040E454E4C301B2010E94CF
:2038A000372869EF74E018160CF4B7C020E030E040E354E4C301B2010E9437286AE075E0D6
:2038C00018160CF4AAC020E030E040E254E4C301B2010E9437286BE175E018160CF49DC042
:2038E00020E030E040E154E4C301B2010E9437286CE275E018160CF490C020E030E040E096
:2039000054E4C301B2010E9437286DE375E018160CF483C020E030E040EE53E4C301B201F5
:203920000E9437286EE475E018160CF476C020E030E040EC53E4C301B2010E9437286FE53C
:2039400075E018160CF469C020E030E040EA53E4C301B2010E94372860E775E018160CF408
:203960005CC020E030E040E853E4C301B2010E94372861E875E018160CF44FC020E030E059
:2039800040E453E4C301B2010E94372862E975E018160CF442C020E030E040E053E4C30159
:2039A000B2010E94372863EA75E01816B4F120E030E040E852E4C301B2010E94372864EBA9
:2039C00075E0181654F120E030E0A901C301B2010E94B12518162CF1809106068130A1F4C8
:2039E00061E080E00E94550760910B0670910C0680910D0690910E0641E050E00E940C08B3
:203A000085EC95E00E940A0880910606811109C061E00E9455076FEA74E080ED96E00E9423
:203A20007C0961E080E00E94550780ED96E00E94CA000E94260380910F06843009F4C0C0F1
:203A400040900706509008066090090670900A0620E030E84EE754E4C301B2010E9437288F
:203A60006AEC74E018160CF49DC020E030E845E654E4C301B2010E9437286CED74E0181643
:203A80000CF490C020E030E04CE454E4C301B2010E9437286DEE74E018160CF483C020E0C6
:203AA00030E842E354E4C301B2010E9437286EEF74E018160CF476C020E030E049E154E492
:203AC000C301B2010E9437286FE075E018160CF469C020E030E04FEF53E4C301B2010E94D5
:203AE000372860E275E018160CF45CC020E030E04CEC53E4C301B2010E94372861E375E0F6
:203B000018160CF44FC020E030E049E953E4C301B2010E94372862E475E018160CF442C0AC
:203B200020E030E04CE453E4C301B2010E94372863E575E01816B4F120E030E04CEC52E4A8
:203B4000C301B2010E94372864E675E0181654F120E030E0A901C301B2010E94B125181604
:203B60002CF1809106068130A1F461E080E00E94550760910B0670910C0680910D069091CC
:203B80000E0641E050E00E940C0885EC95E00E940A0880910606811109C061E00E945507B9
:203BA0006FEA74E080ED96E00E947C0961E080E00E94550780ED96E00E94CA000E94260395
:203BC000109213061092140610921506109216060CE211E08FE00E94BC026091110670913C
:203BE0001206680F791F072E000C880B990B0E94B82520917C0130917D0140917E01509109
:203C00007F010E941726209178013091790140917A0150917B010E94222720E030E046E90D
:203C200053E40E948F27209113063091140640911506509116060E9423272B013C01409240
:203C400013065092140660921506709216060150110909F0BFCF61E070E080E090E00E942F
:203C6000F30280911006853080F120E030E0A901C301B2010E94B125181644F0109213063C
:203C800010921406109215061092160680910F068430C9F04090130650901406609015066C
:203CA0007090160661E08BE00E94550741E050E0C301B2010E940C0888EB92E00E940A0827
:203CC00080E20E9486071092100640901306509014066090150670901606209174013091AA
:203CE00075014091760150917701C301B2010E94372887FD04C080917301811114C0209151
:203D00006F0130917001409171015091720160910B0670910C0680910D0690910E060E945A
:203D2000372887FD0BC061E082E10E94000280917301815009F492C6809373012091740135
:203D4000309175014091760150917701C301B2010E94B12587FF21C0109173011A30E8F4FA
:203D600020916F0130917001409171015091720160910B0670910C0680910D0690910E06EB
:203D80000E94B12587FF09C060E082E10E940002115009F465C6109373010E9426032B017E
:203DA0003C0103E217E0D8012C912223A9F11B964D915D916D917C911E97D301C201841B02
:203DC000950BA60BB70BF801418152816381748184179507A607B70780F0213009F444C6FF
:203DE000223009F446C6F8014386548665867686878590890196908B8787D80115968D915E
:203E00009C91169797FD08C01F962D913C915097281739070CF01C920F5E1F4FEDECF7E091
:203E2000E017F10709F0BFCF80E090E0892B11F40C94F2160E941001882311F40C94EF16D3
:203E40000E9400000C94EF16C997B4F59091E60591110EC080911A0681110AC08091E30510
:203E600091E089278093E3059093E6050C943C178091E4058F5F8093E405209119068B30B6
:203E800008F02FC6211106C080911806811102C010921A0680911A06882371F091110CC04D
:203EA0008091E705811108C0809119068F5F8093190681E08093E70580911906893058F0CA
:203EC00080911806813039F499E09093190680931A068093E305809119068930F8F080910A
:203EE000180681111BC01092190610921A061092E30561E00E94550783EF92E00E940A0853
:203F000060E080E00E94550783EF92E00E940A086CE271E080E090E00E94F3028091EE0561
:203F20009091EF0520911A06AC014A5351094F31510508F0D6C2222341F180911906813039
:203F400021F560E471E084E190E00E94C209FC0180819181A281B3810196A11DB11D8093D7
:203F6000400190934101A0934201B093430160E471E084E190E00E94E20F68EC70E080E09D
:203F800090E00E94F3020E940E0A80911A06882341F180911906823021F56CE371E08EE14B
:203FA00090E00E94C209FC0180819181A281B3810196A11DB11D80933C0190933D01A093B6
:203FC0003E01B0933F016CE371E08EE190E00E94E20F68EC70E080E090E00E94F3020E9460
:203FE0000E0A80911A068823A9F180911906833089F568E371E082E390E00E94E8092DECB5
:204000003CEC4CEC5DE3DC016D917D918D919C910E9423272B013C0120E030EC49E754E4F3
:204020000E94372887FFEFC1409238015092390160923A0170923B0168E371E082E390E046
:204040000E94151068EC70E080E090E00E94F3020E940E0A80911A06882309F409C1809120
:204060001906843009F004C16FE076E086E490E00E94670BFC0180818F5F80930F06811176
:2040800030C064EA72E088EB96E00E94460980E092E09093E2058093E10580ED94E4A8ED67
:2040A000BCE380937C0190937D01A0937E01B0937F0186EF98E2A8E5B1E4809378019093FB
:2040C0007901A0937A01B0937B0180E090E0A0EAB0E48093740190937501A0937601B093FD
:2040E000770180910F06813081F56FEA72E088EB96E00E944609A0E0B2E0B093E205A09307
:20410000E10588E691E9ADE6BCE380937C0190937D01A0937E01B0937F0186E696E6AEEE75
:20412000B0E48093780190937901A0937A01B0937B0180E090E0A0EAB1E4809374019093BB
:204140007501A0937601B093770180910F06823061F56AEB72E088EB96E00E944609A0E055
:20416000B2E0B093E205A093E10580E090E0A0EFBBE380937C0190937D01A0937E01B09347
:204180007F0180E090E0A0E7B0E48093780190937901A0937A01B0937B01C0927401D092F5
:2041A0007501E0927601F092770180910F06833011F565EC72E088EB96E00E9446091092A8
:2041C000E2051092E10580927C0190927D01A0927E01B0927F0110927801109279011092F5
:2041E0007A0110927B01C0927401D0927501E0927601F092770180910F06843028F184E04D
:2042000080930F0664E073E088EB96E00E9446091092E2051092E10580927C0190927D01C5
:20422000A0927E01B0927F01109278011092790110927A0110927B0110927401109275016A
:2042400010927601109277016FE076E086E490E00E94CA0F64E771E088E290E00E941510F4
:2042600068EC70E080E090E00E94F3020E940E0A80911A06882309F440C0809119068530BB
:20428000E1F52DEC3CEC4CEC5DE3609174017091750180917601909177010E9423276093B2
:2042A000740170937501809376019093770120910F062111B5C020E030E040EA50E40E946E
:2042C000372887FD0CC080E090E0A0EAB0E48093740190937501A0937601B093770164E770
:2042E00071E088E290E00E94151068EC70E080E090E00E94F3020E940E0A80911A0688232B
:20430000F9F0809119068630D9F460EE75E08CE390E00E94670BDC018C918F3F09F0A3C047
:204320001092E00560EE75E08CE390E00E94CA0F68EC70E080E090E00E94F3020E940E0A34
:2043400080911A06882359F180911906873039F56FE671E08AE090E00E94E80920E030E0FF
:2043600040E85FE3FC0160817181828193810E94232760936F017093700180937101909381
:2043800072016FE671E08AE090E00E94151068EC70E080E090E00E94F3020E940E0A80918D
:2043A0001A06882399F080911906883079F4809118068F3F09F061C01092180668EC70E0D9
:2043C00080E090E00E94F3020E940E0A80911A06882311F40C94411780911906893079F48D
:2043E0008091E50581110BC091E09093E505809144018F5F883008F04AC0809344010E94EF
:204400000E0A0C94411780E090ECA9E7B4E48093380190933901A0933A01B0933B010CCE18
:20442000213069F420E030E040EA51E40E94372887FD55CF80E090E0A0EAB1E448CF22305E
:2044400009F05BC320E030E040EF51E40E94372887FD45CFC0927401D0927501E0927601B0
:20446000F09277013CCF81E08093E0056DE972E08EEB96E00E94460955CF81E080931806A0
:2044800060E173E084EC96E00E94460997CF909344011092190610921A061092E305109234
:2044A00018061092E00561EA72E084EC96E00E94460969E972E08EEB96E00E94460961E01E
:2044C00080E00E94550783EF92E00E940A0860E080E00E94550783EF92E00E940A080C9410
:2044E0003C1789559109C79710F00C943C17222371F180911906813051F560E471E084E1D8
:2045000090E00E94C209FC0180819181A281B3810197A109B10982309105A105B1050CF4B7
:204520006CC28093400190934101A0934201B093430160E471E084E190E00E94E20F68EC46
:2045400070E080E090E00E94F3020E940E0A80911A06882371F180911906823051F56CE335
:2045600071E08EE190E00E94C209FC0180819181A281B3810197A109B10982309105A1054D
:20458000B1050CF43FC280933C0190933D01A0933E01B0933F016CE371E08EE190E00E949D
:2045A000E20F68EC70E080E090E00E94F3020E940E0A80911A068823B1F1809119068330E4
:2045C00091F568E371E082E390E00E94E8092DEC3CEC4CEC5DE3DC016D917D918D919C9164
:2045E0000E9422272B013C0120E030E040E85FE30E94B12518160CF00AC240923801509292
:20460000390160923A0170923B0168E371E082E390E00E94151068EC70E080E090E00E94A7
:20462000F3020E940E0A80911A06882309F40EC180911906843009F009C180910F068823AB
:2046400009F404C16FE076E086E490E00E94670BFC018081815080930F06811130C064EA3E
:2046600072E088EB96E00E94460980E092E09093E2058093E10580ED94E4A8EDBCE380930D
:204680007C0190937D01A0937E01B0937F0186EF98E2A8E5B1E48093780190937901A0931A
:2046A0007A01B0937B0180E090E0A0EAB0E48093740190937501A0937601B093770180913B
:2046C0000F06813081F56FEA72E088EB96E00E944609A0E0B2E0B093E205A093E10588E656
:2046E00091E9ADE6BCE380937C0190937D01A0937E01B0937F0186E696E6AEEEB0E480933D
:20470000780190937901A0937A01B0937B0180E090E0A0EAB1E48093740190937501A093D3
:204720007601B093770180910F06823061F56AEB72E088EB96E00E944609A0E0B2E0B09343
:20474000E205A093E10580E090E0A0EFBBE380937C0190937D01A0937E01B0937F0180E056
:2047600090E0A0E7B0E48093780190937901A0937A01B0937B01C0927401D0927501E09207
:204780007601F092770180910F06833011F565EC72E088EB96E00E9446091092E205109221
:2047A000E10580927C0190927D01A0927E01B0927F01109278011092790110927A0110927B
:2047C0007B01C0927401D0927501E0927601F092770180910F06843028F184E080930F065C
:2047E00064E073E088EB96E00E9446091092E2051092E10580927C0190927D01A0927E0157
:20480000B0927F01109278011092790110927A0110927B011092740110927501109276011C
:20482000109277016FE076E086E490E00E94CA0F64E771E088E290E00E94151068EC70E083
:2048400080E090E00E94F3020E940E0A80911A06882309F43FC0809119068530D9F52DEC93
:204860003CEC4CEC5DE3609174017091750180917601909177010E9422272B013C012DEC2D
:204880003CEC4CEC5DE30E94B12518160CF0CCC040927401509275016092760170927701C8
:2048A00080910F06843041F41092740110927501109276011092770164E771E088E290E011
:2048C0000E94151068EC70E080E090E00E94F3020E940E0A80911A06882319F18091190636
:2048E0008630F9F48091E0058823D9F060EE75E08CE390E00E94670BDC018C918150809337
:20490000E005811106C069E972E08EEB96E00E94460960EE75E08CE390E00E94CA0F0E9437
:204920000E0A80911A06882399F180911906873079F520E030E040E85FE360916F017091C8
:20494000700180917101909172010E9422272B013C0120E030E040E85FE30E94B12518165B
:204960000CF06FC040926F015092700160927101709272016FE671E08AE090E00E94151057
:2049800068EC70E080E090E00E94F3020E940E0A80911A068823A9F080911906883089F478
:2049A00080911806882369F0815080931806811106C061EA72E084EC96E00E9446090E9454
:2049C0000E0A80911A06882311F40C94411780911906893009F013CD8091E50581110FCDBB
:2049E00091E09093E505809144018150823008F004CD909344010C943C1781E090E0A0E0EB
:204A0000B0E08FCD81E090E0A0E0B0E0BCCD80E090E0A0E8BFE38093380190933901A0936A
:204A20003A01B0933B01F1CD8DEC9CECACECBDE38093740190937501A0937601B09377013F
:204A40002FCF80E090E0A0E8BFE380936F0190937001A0937101B09372018CCF8AE06CC9F2
:204A60008AE08093730199C90184F285E02D0995BAC961E08085811160E0D80118966C931B
:204A8000189717968C910E940002ADC921E1289F8001299F100D11240D5D184F81E0D80114
:204AA0008C9381E090E0A0E0B0E0F80181839283A383B4838FEF9FEF9683858381E79BE077
:204AC000928781870E942603D8011B966D937D938D939C931E9750961C921E921F970C94B2
:204AE0004A12809118068111D5C92111D3C981E080931A0680931906CDC9233009F4A2CC13
:204B0000243009F0ECCB20E030E0A9010E94372887FDE5CB1092740110927501109276015A
:204B200010927701DCCB8091B8069091B9060E94A7298091BE069091BF060E94A729809155
:204B4000C4069091C5060E94A7298091CA069091CB060E94A7298091D0069091D1060C9469
:204B6000A7290E94F32508F481E00895E89409C097FB3EF490958095709561957F4F8F4FC7
:204B80009F4F9923A9F0F92F96E9BB279395F695879577956795B795F111F8CFFAF4BB0FA5
:204BA00011F460FF1BC06F5F7F4F8F4F9F4F16C0882311F096E911C0772321F09EE8872F95
:204BC000762F05C0662371F096E8862F70E060E02AF09A95660F771F881FDAF7880F969530
:204BE000879597F90895990F0008550FAA0BE0E8FEEF16161706E807F907C0F012161306C5
:204C0000E407F50798F0621B730B840B950B39F40A2661F0232B242B252B21F408950A267E
:204C200009F4A140A6958FEF811D811D08950E942A260C949B260E948D2638F00E949426D8
:204C400020F0952311F00C9484260C948A2611240C94CF260E94AC2670F3959FC1F3950FC4
:204C600050E0551F629FF001729FBB27F00DB11D639FAA27F00DB11DAA1F649F6627B00D2C
:204C8000A11D661F829F2227B00DA11D621F739FB00DA11D621F839FA00D611D221F749FBC
:204CA0003327A00D611D231F849F600D211D822F762F6A2F11249F5750409AF0F1F088239F
:204CC0004AF0EE0FFF1FBB1F661F771F881F91505040A9F79E3F510580F00C9484260C9445
:204CE000CF265F3FE4F3983ED4F3869577956795B795F795E7959F5FC1F7FE2B880F911D12
:204D00009695879597F9089597F99F6780E870E060E008959FEF80EC089500240A9416166F
:204D2000170618060906089500240A9412161306140605060895092E0394000C11F488233D
:204D400052F0BB0F40F4BF2B11F460FF04C06F5F7F4F8F4F9F4F089557FD9058440F551FF9
:204D600059F05F3F71F04795880F97FB991F61F09F3F79F087950895121613061406551F0E
:204D8000F2CF4695F1DF08C0161617061806991FF1CF86957105610508940895E894BB2772
:204DA00066277727CB0197F90895F999FECF92BD81BDF89A992780B50895262FF999FECF0B
:204DC0001FBA92BD81BD20BD0FB6F894FA9AF99A0FBE019608952F923F924F925F926F92B2
:204DE0007F928F929F92AF92BF92CF92DF92EF92FF920F931F93CF93DF93CDB7DEB7CA1BB4
:204E0000DB0B0FB6F894DEBF0FBECDBF09942A88398848885F846E847D848C849B84AA8452
:204E2000B984C884DF80EE80FD800C811B81AA81B981CE0FD11D0FB6F894DEBF0FBECDBFFF
:204E4000ED0108955058BB27AA270E943A270C949B260E948D2638F00E94942620F039F4F2
:204E60009F3F19F426F40C948A260EF4E095E7FB0C948426E92F0E94AC2658F3BA17620729
:204E800073078407950720F079F4A6F50C94CE260EF4E0950B2EBA2FA02D0B01B901900108
:204EA0000C01CA01A0011124FF27591B99F0593F50F4503E68F11A16F040A22F232F342F78
:204EC0004427585FF3CF469537952795A795F0405395C9F77EF41F16BA0B620B730B840B91
:204EE000BAF09150A1F0FF0FBB1F661F771F881FC2F70EC0BA0F621F731F841F48F487958E
:204F000077956795B795F7959E3F08F0B0CF9395880F08F09927EE0F9795879508950E9462
:204F2000A3270C949B260E94942658F00E948D2640F029F45F3F29F00C94842651110C94FD
:204F4000CF260C948A260E94AC2668F39923B1F3552391F3951B550BBB27AA27621773072B
:204F6000840738F09F5F5F4F220F331F441FAA1FA9F335D00E2E3AF0E0E832D091505040E1
:204F8000E695001CCAF72BD0FE2F29D0660F771F881FBB1F261737074807AB07B0E809F0FF
:204FA000BB0B802DBF01FF2793585F4F3AF09E3F510578F00C9484260C94CF265F3FE4F3E6
:204FC000983ED4F3869577956795B795F7959F5FC9F7880F911D9695879597F90895E1E001
:204FE000660F771F881FBB1F621773078407BA0720F0621B730B840BBA0BEE1F88F7E09586
:2050000008950E9408286894B1110C94CF2608950E94B42688F09F5798F0B92F9927B7510F
:20502000B0F0E1F0660F771F881F991F1AF0BA95C9F714C0B13091F00E94CE26B1E0089582
:205040000C94CE26672F782F8827B85F39F0B93FCCF3869577956795B395D9F73EF4909547
:205060008095709561957F4F8F4F9F4F08950E94F32508F48FEF089519F416F40C948A26B1
:205080000C9487280E94B426B8F39923C9F3B6F39F57550B87FF0E9495280024A0E640EA6A
:2050A000900180585695979528F4805C660F771F881F20F026173707480730F4621B730BCD
:2050C000840B202931294A2BA69517940794202531254A2758F7660F771F881F20F026174E
:2050E0003707480730F4620B730B840B200D311D411DA09581F7B901842F9158880F9695E7
:20510000879508950E94F325880B990B08959F3F31F0915020F4879577956795B795880F4D
:20512000911D9695879597F9089591505040660F771F881FD2F7089597FB072E16F400945F
:2051400007D077FD09D00E94F12807FC05D03EF4909581959F4F0895709561957F4F08953A
:20516000A1E21A2EAA1BBB1BFD010DC0AA1FBB1FEE1FFF1FA217B307E407F50720F0A21B09
:20518000B30BE40BF50B661F771F881F991F1A9469F760957095809590959B01AC01BD019F
:2051A000CF010895052E97FB1EF400940E94E92857FD07D00E94B02807FC03D04EF40C9407
:2051C000E92850954095309521953F4F4F4F5F4F089590958095709561957F4F8F4F9F4F43
:2051E0000895AA1BBB1B51E107C0AA1FBB1FA617B70710F0A61BB70B881F991F5A95A9F7EF
:2052000080959095BC01CD010895EE0FFF1F0590F491E02D09940F931F93CF93DF93823073
:20522000910510F482E090E0E091CF07F091D00730E020E0B0E0A0E0309799F42115310583
:2052400009F44AC0281B390B24303105D8F58A819B816115710589F1FB0193838283FE01C6
:2052600011C0408151810281138148175907E0F04817590799F4109761F012960C931297F0
:2052800013961C933296CF01DF91CF911F910F9108950093CF071093D007F4CF211531054F
:2052A00051F04217530738F0A901DB019A01BD01DF01F801C1CFEF01F9CF9093D0078093C5
:2052C000CF07CDCFFE01E20FF31F819391932250310939832883D7CF2091CD073091CE074E
:2052E000232B41F420918201309183013093CE072093CD07209180013091810121153105B2
:2053000041F42DB73EB74091840150918501241B350BE091CD07F091CE07E217F307A0F421
:205320002E1B3F0B2817390778F0AC014E5F5F4F2417350748F04E0F5F1F5093CE074093D6
:20534000CD07819391939FCFF0E0E0E09CCFCF93DF930097E9F0FC01329713821282A09174
:20536000CF07B091D007ED0130E020E01097A1F420813181820F931F2091CD073091CE0754
:205380002817390709F061C0F093CE07E093CD07DF91CF910895EA01CE17DF07E8F54A810A
:2053A0005B819E0141155105B1F7E901FB83EA8349915991C40FD51FEC17FD0761F4808161
:2053C00091810296840F951FE90199838883828193819B838A83F0E0E0E012968D919C9106
:2053E00013970097B9F52D913C911197CD010296820F931F2091CD073091CE072817390748
:2054000039F6309751F51092D0071092CF07B093CE07A093CD07BCCFD383C2834081518187
:20542000840F951FC817D90761F44E5F5F4F88819981480F591F518340838A819B819383F0
:2054400082832115310509F0B0CFF093D007E093CF079ECFFD01DC01C0CF13821282D7CF1A
:20546000B0E0A0E0E6E3FAE20C94ED268C01009751F4CB010E940B298C01C801CDB7DEB74A
:20548000E0E10C940927FC01E60FF71F9C0122503109E217F30708F49DC0D901CD91DC9139
:2054A0001197C617D70798F0C530D10530F3CE0104978617970708F3C61BD70B2297C193A3
:2054C000D1936D937C93CF010E94A729D6CF5B01AC1ABD0A4C018C0E9D1EA091CF07B0919F
:2054E000D007512C412CF12CE12C109731F58091CD079091CE078815990509F05CC046166D
:20550000570608F058C08091800190918101009741F48DB79EB74091840150918501841B28
:20552000950BE817F90708F055C0F093CE07E093CD07F90171836083A0CF8D919C911197ED
:2055400012966C90129713967C901397A815B90559F56C0142E0C40ED11CCA14DB0420F1BA
:20556000AC014A195B09DA011296159780F06282738251834083D9016D937C93E114F104D5
:2055800071F0D7011396FC93EE93129776CF22968C0F9D1FF90191838083F301EFCFF093D6
:2055A000D007E093CF0769CF4816590608F42C017D01D3019ACFCB010E940B297C0100973C
:2055C00049F0AE01B8010E94ED2AC8010E94A729870153CF10E000E050CFFB01DC0102C002
:2055E00001900D9241505040D8F70895FB01DC0101900D920020E1F7089510E0C2E7D0E007
:2056000004C0FE010E9405292196C337D107C9F7F894FFCF1F1115111D1D111F1F1115113E
:205620001515111F1F111D1D1D1D1D1F1F1117111515111F1F1117111D1D111F1F15151162
:205640001D1D1D1F1F111D111D1D111F00004040320000006400000001320064009600C801
:2056600000FA002C015E019001C201F401260258028A02BC02EE02200352038403B603E8FF
:2056800003FF030000A0420A0000F041F6285841D044D83C0000D10780005E00BC0077011F
:2056A0003F5F7F0000000046019D00D30093010401E200F6000000000064079D009A049966
:2056C000046E616E00696E66006F76660020496E707574204D4158205057522020002057FB
:2056E0002020202000414E54454E2E524553495354414E434500204F6D2020200053544171
:205700005254204C494D4954202053575200202053656C6563742053454E534F522000202E
:205720002D2000202B2000204D4158494D554D2020414D5045524500204120202020002078
:20574000204F555450555420414C43203F2020002020202D202020002020202B20202000D1
:205760004D4158494D2E54454D5045524154555200204544495420532D4D45544552203FB4
:2057800020005357523D3939390053575220202020202020202020505752005357523D0097
:2057A00020503D00572020005057523D004C494E004C4F47004E4F004143533731325F300D
:2057C0003541004143533731325F323041004143533731325F3330410042545336363020C7
:2057E00033304100416D706572204F464620002035305720414D504C494649455220202000
:205800004143542020200020202020202020202020202020202020002020416D70657220FB
:205820004F46460059455300202050494E204130203D2000534156452000302042616C6C4D
:20584000203D204F46462056464F2000332042616C6C3D20302E38206D6B562000362042FE
:20586000616C6C3D2036206D6B5620202000392042616C6C3D203530206D6B562020003951
:205880002B323064423D20353030206D6B562000392B343064423D2035303030206D6B5697
:2058A00000392B363064423D2035303030306D6B5600FFFFFFFFFFFFFFFF072B36306442C2
:2058C00000FFFFFFFFFFFFFFFF072B3535644200FFFFFFFFFFFFFFFF072B3530644200FF5A
:2058E000FFFFFFFFFFFFFF072B3435644200FFFFFFFFFFFFFFFF072B3430644200FFFFFF3D
:20590000FFFFFFFFFF072B3335644200FFFFFFFFFFFFFFFF072B3330644200FFFFFFFFFF1E
:20592000FFFFFF072B3235644200FFFFFFFFFFFFFFFF072B3230644200FFFFFFFFFFFFFF00
:20594000FF072B3135644200FFFFFFFFFFFFFFFF072B3130644200FFFFFFFFFFFFFFFF07DA
:205960002B2035644200FFFFFFFFFFFFFFFF07202020202000FFFFFFFFFFFFFF0620202003
:2059800020202000FFFFFFFFFFFF052020202020202000FFFFFFFFFF0420202020202020E9
:2059A0002000FFFFFFFF0320202020202020202000FFFFFF02202020202020202020200069
:2059C000FFFF012020202020202020202020002D004D454E55002B00FFFFFFFFFFFFFFFFE3
:2059E000FFFFFFFFFFFFFFFF2000FFFFFFFFFFFFFFFFFFFFFFFFFFFFFF202000FFFFFFFF62
:205A0000FFFFFFFFFFFFFFFFFF20202000FFFFFFFFFFFFFFFFFFFFFFFF2020202000FFFFBD
:205A2000FFFFFFFFFFFFFFFFFF202020202000FFFFFFFFFFFFFFFFFFFF2020202020200019
:205A4000FFFFFFFFFFFFFFFFFF2020202020202000FFFFFFFFFFFFFFFF2020202020202097
:205A60002000FFFFFFFFFFFFFF20202020202020202000FFFFFFFFFFFF2020202020202013
:205A800020202000FFFFFFFFFF202020202020202020202000FFFFFFFF202020202020206F
:205AA000202020202000FFFFFF2020202020202020202020202000FFFF20202020202020CB
:1C5AC0002020202020202000FF20202020202020202020202020202000430000C8
:00000001FF
